{
    "_format": "hh-sol-artifact-1",
    "contractName": "CuriosChallenge",
    "sourceName": "contracts/CuriosChallenge.sol",
    "abi": [
        {
            "inputs": [
                {
                    "internalType": "address",
                    "name": "verifierAddress",
                    "type": "address"
                },
                {
                    "internalType": "address",
                    "name": "initialOwner",
                    "type": "address"
                }
            ],
            "stateMutability": "nonpayable",
            "type": "constructor"
        },
        {
            "inputs": [
                {
                    "internalType": "address",
                    "name": "owner",
                    "type": "address"
                }
            ],
            "name": "OwnableInvalidOwner",
            "type": "error"
        },
        {
            "inputs": [
                {
                    "internalType": "address",
                    "name": "account",
                    "type": "address"
                }
            ],
            "name": "OwnableUnauthorizedAccount",
            "type": "error"
        },
        {
            "anonymous": false,
            "inputs": [
                {
                    "indexed": true,
                    "internalType": "address",
                    "name": "creator",
                    "type": "address"
                },
                {
                    "indexed": true,
                    "internalType": "uint256",
                    "name": "challengeIndex",
                    "type": "uint256"
                }
            ],
            "name": "ChallengeCreated",
            "type": "event"
        },
        {
            "anonymous": false,
            "inputs": [
                {
                    "indexed": true,
                    "internalType": "address",
                    "name": "creator",
                    "type": "address"
                },
                {
                    "indexed": true,
                    "internalType": "uint256",
                    "name": "challengeIndex",
                    "type": "uint256"
                }
            ],
            "name": "ChallengeInvalidated",
            "type": "event"
        },
        {
            "anonymous": false,
            "inputs": [
                {
                    "indexed": true,
                    "internalType": "address",
                    "name": "previousOwner",
                    "type": "address"
                },
                {
                    "indexed": true,
                    "internalType": "address",
                    "name": "newOwner",
                    "type": "address"
                }
            ],
            "name": "OwnershipTransferred",
            "type": "event"
        },
        {
            "anonymous": false,
            "inputs": [
                {
                    "indexed": true,
                    "internalType": "address",
                    "name": "claimer",
                    "type": "address"
                },
                {
                    "indexed": true,
                    "internalType": "uint256",
                    "name": "challengeIndex",
                    "type": "uint256"
                },
                {
                    "indexed": false,
                    "internalType": "uint256",
                    "name": "prize",
                    "type": "uint256"
                }
            ],
            "name": "PrizeClaimed",
            "type": "event"
        },
        {
            "inputs": [
                {
                    "internalType": "address",
                    "name": "",
                    "type": "address"
                },
                {
                    "internalType": "uint256",
                    "name": "",
                    "type": "uint256"
                }
            ],
            "name": "challenges",
            "outputs": [
                {
                    "internalType": "address",
                    "name": "creator",
                    "type": "address"
                },
                {
                    "internalType": "uint256",
                    "name": "index",
                    "type": "uint256"
                },
                {
                    "internalType": "string",
                    "name": "name",
                    "type": "string"
                },
                {
                    "internalType": "string",
                    "name": "hint",
                    "type": "string"
                },
                {
                    "internalType": "bytes32",
                    "name": "merkleRoot",
                    "type": "bytes32"
                },
                {
                    "internalType": "uint256",
                    "name": "maxWinners",
                    "type": "uint256"
                },
                {
                    "internalType": "string",
                    "name": "metadata",
                    "type": "string"
                },
                {
                    "internalType": "bool",
                    "name": "valid",
                    "type": "bool"
                },
                {
                    "internalType": "uint256",
                    "name": "prizePool",
                    "type": "uint256"
                }
            ],
            "stateMutability": "view",
            "type": "function"
        },
        {
            "inputs": [
                {
                    "internalType": "address",
                    "name": "_creator",
                    "type": "address"
                },
                {
                    "internalType": "uint256",
                    "name": "_challengeIndex",
                    "type": "uint256"
                },
                {
                    "internalType": "uint256[2]",
                    "name": "a",
                    "type": "uint256[2]"
                },
                {
                    "internalType": "uint256[2][2]",
                    "name": "b",
                    "type": "uint256[2][2]"
                },
                {
                    "internalType": "uint256[2]",
                    "name": "c",
                    "type": "uint256[2]"
                },
                {
                    "internalType": "uint256[1]",
                    "name": "publicSignals",
                    "type": "uint256[1]"
                }
            ],
            "name": "claimPrize",
            "outputs": [],
            "stateMutability": "nonpayable",
            "type": "function"
        },
        {
            "inputs": [
                {
                    "internalType": "string",
                    "name": "_name",
                    "type": "string"
                },
                {
                    "internalType": "string",
                    "name": "_hint",
                    "type": "string"
                },
                {
                    "internalType": "uint256",
                    "name": "_maxWinners",
                    "type": "uint256"
                },
                {
                    "internalType": "bytes32",
                    "name": "_merkleRoot",
                    "type": "bytes32"
                },
                {
                    "internalType": "string",
                    "name": "_metadata",
                    "type": "string"
                }
            ],
            "name": "createChallenge",
            "outputs": [],
            "stateMutability": "payable",
            "type": "function"
        },
        {
            "inputs": [
                {
                    "internalType": "address",
                    "name": "_creator",
                    "type": "address"
                },
                {
                    "internalType": "uint256",
                    "name": "_challengeIndex",
                    "type": "uint256"
                }
            ],
            "name": "getChallenge",
            "outputs": [
                {
                    "internalType": "address",
                    "name": "creator",
                    "type": "address"
                },
                {
                    "internalType": "uint256",
                    "name": "index",
                    "type": "uint256"
                },
                {
                    "internalType": "string",
                    "name": "name",
                    "type": "string"
                },
                {
                    "internalType": "string",
                    "name": "hint",
                    "type": "string"
                },
                {
                    "internalType": "bytes32",
                    "name": "merkleRoot",
                    "type": "bytes32"
                },
                {
                    "internalType": "uint256",
                    "name": "maxWinners",
                    "type": "uint256"
                },
                {
                    "internalType": "string",
                    "name": "metadata",
                    "type": "string"
                },
                {
                    "internalType": "bool",
                    "name": "valid",
                    "type": "bool"
                },
                {
                    "internalType": "uint256",
                    "name": "prizePool",
                    "type": "uint256"
                }
            ],
            "stateMutability": "view",
            "type": "function"
        },
        {
            "inputs": [
                {
                    "internalType": "address",
                    "name": "_creator",
                    "type": "address"
                },
                {
                    "internalType": "uint256",
                    "name": "_challengeIndex",
                    "type": "uint256"
                }
            ],
            "name": "invalidateChallenge",
            "outputs": [],
            "stateMutability": "nonpayable",
            "type": "function"
        },
        {
            "inputs": [],
            "name": "owner",
            "outputs": [
                {
                    "internalType": "address",
                    "name": "",
                    "type": "address"
                }
            ],
            "stateMutability": "view",
            "type": "function"
        },
        {
            "inputs": [],
            "name": "renounceOwnership",
            "outputs": [],
            "stateMutability": "nonpayable",
            "type": "function"
        },
        {
            "inputs": [
                {
                    "internalType": "address",
                    "name": "newOwner",
                    "type": "address"
                }
            ],
            "name": "transferOwnership",
            "outputs": [],
            "stateMutability": "nonpayable",
            "type": "function"
        },
        {
            "inputs": [],
            "name": "verifier",
            "outputs": [
                {
                    "internalType": "contract Groth16Verifier",
                    "name": "",
                    "type": "address"
                }
            ],
            "stateMutability": "view",
            "type": "function"
        }
    ],
    "bytecode": "0x608060405234801561001057600080fd5b5060405161252538038061252583398181016040528101906100329190610224565b80600073ffffffffffffffffffffffffffffffffffffffff168173ffffffffffffffffffffffffffffffffffffffff16036100a55760006040517f1e4fbdf700000000000000000000000000000000000000000000000000000000815260040161009c9190610273565b60405180910390fd5b6100b4816100fd60201b60201c565b5081600160006101000a81548173ffffffffffffffffffffffffffffffffffffffff021916908373ffffffffffffffffffffffffffffffffffffffff160217905550505061028e565b60008060009054906101000a900473ffffffffffffffffffffffffffffffffffffffff169050816000806101000a81548173ffffffffffffffffffffffffffffffffffffffff021916908373ffffffffffffffffffffffffffffffffffffffff1602179055508173ffffffffffffffffffffffffffffffffffffffff168173ffffffffffffffffffffffffffffffffffffffff167f8be0079c531659141344cd1fd0a4f28419497f9722a3daafe3b4186f6b6457e060405160405180910390a35050565b600080fd5b600073ffffffffffffffffffffffffffffffffffffffff82169050919050565b60006101f1826101c6565b9050919050565b610201816101e6565b811461020c57600080fd5b50565b60008151905061021e816101f8565b92915050565b6000806040838503121561023b5761023a6101c1565b5b60006102498582860161020f565b925050602061025a8582860161020f565b9150509250929050565b61026d816101e6565b82525050565b60006020820190506102886000830184610264565b92915050565b6122888061029d6000396000f3fe6080604052600436106100865760003560e01c8063a76c970411610059578063a76c970414610121578063a77caa6e1461014a578063c5a5d7de1461018f578063f2fde38b146101d4578063f937691b146101fd57610086565b80632b7ac3f31461008b578063715018a6146100b65780637215ce31146100cd5780638da5cb5b146100f6575b600080fd5b34801561009757600080fd5b506100a0610219565b6040516100ad9190611103565b60405180910390f35b3480156100c257600080fd5b506100cb61023f565b005b3480156100d957600080fd5b506100f460048036038101906100ef91906111a6565b610253565b005b34801561010257600080fd5b5061010b61043c565b60405161011891906111f5565b60405180910390f35b34801561012d57600080fd5b50610148600480360381019061014391906114b9565b610465565b005b34801561015657600080fd5b50610171600480360381019061016c91906111a6565b6107fd565b6040516101869998979695949392919061160b565b60405180910390f35b34801561019b57600080fd5b506101b660048036038101906101b191906111a6565b610a89565b6040516101cb9998979695949392919061160b565b60405180910390f35b3480156101e057600080fd5b506101fb60048036038101906101f691906116ad565b610cb9565b005b610217600480360381019061021291906117bb565b610d3f565b005b600160009054906101000a900473ffffffffffffffffffffffffffffffffffffffff1681565b610247610f31565b6102516000610fb8565b565b6000600260008473ffffffffffffffffffffffffffffffffffffffff1673ffffffffffffffffffffffffffffffffffffffff16815260200190815260200160002082815481106102a6576102a561188a565b5b90600052602060002090600a020190508060000160009054906101000a900473ffffffffffffffffffffffffffffffffffffffff1673ffffffffffffffffffffffffffffffffffffffff163373ffffffffffffffffffffffffffffffffffffffff161480610346575061031761043c565b73ffffffffffffffffffffffffffffffffffffffff163373ffffffffffffffffffffffffffffffffffffffff16145b610385576040517f08c379a000000000000000000000000000000000000000000000000000000000815260040161037c90611905565b60405180910390fd5b8060070160009054906101000a900460ff166103d6576040517f08c379a00000000000000000000000000000000000000000000000000000000081526004016103cd90611971565b60405180910390fd5b60008160070160006101000a81548160ff021916908315150217905550818373ffffffffffffffffffffffffffffffffffffffff167f71857b3e0d00c590590340d2b6ed277025c90678056c148f7ea39ea905230ffc60405160405180910390a3505050565b60008060009054906101000a900473ffffffffffffffffffffffffffffffffffffffff16905090565b6000600260008873ffffffffffffffffffffffffffffffffffffffff1673ffffffffffffffffffffffffffffffffffffffff16815260200190815260200160002086815481106104b8576104b761188a565b5b90600052602060002090600a020190508060070160009054906101000a900460ff16610519576040517f08c379a0000000000000000000000000000000000000000000000000000000008152600401610510906119dd565b60405180910390fd5b8060090160003373ffffffffffffffffffffffffffffffffffffffff1673ffffffffffffffffffffffffffffffffffffffff16815260200190815260200160002060009054906101000a900460ff16156105a8576040517f08c379a000000000000000000000000000000000000000000000000000000000815260040161059f90611a49565b60405180910390fd5b60008160080154116105ef576040517f08c379a00000000000000000000000000000000000000000000000000000000081526004016105e690611ab5565b60405180910390fd5b600160009054906101000a900473ffffffffffffffffffffffffffffffffffffffff1673ffffffffffffffffffffffffffffffffffffffff166343753b4d868686866040518563ffffffff1660e01b81526004016106509493929190611d02565b602060405180830381865afa15801561066d573d6000803e3d6000fd5b505050506040513d601f19601f820116820180604052508101906106919190611d75565b6106d0576040517f08c379a00000000000000000000000000000000000000000000000000000000081526004016106c790611dee565b60405180910390fd5b60018160090160003373ffffffffffffffffffffffffffffffffffffffff1673ffffffffffffffffffffffffffffffffffffffff16815260200190815260200160002060006101000a81548160ff0219169083151502179055506000816005015482600801546107409190611e6c565b9050808260080160008282546107569190611e9d565b925050819055503373ffffffffffffffffffffffffffffffffffffffff166108fc829081150290604051600060405180830381858888f193505050501580156107a3573d6000803e3d6000fd5b50863373ffffffffffffffffffffffffffffffffffffffff167f256642a903d86ec186d0ad895b74bdbe7f9e5a72db568f4c4d58c2fa38b39e1c836040516107eb9190611ed1565b60405180910390a35050505050505050565b60008060608060008060606000806000600260008d73ffffffffffffffffffffffffffffffffffffffff1673ffffffffffffffffffffffffffffffffffffffff1681526020019081526020016000208b8154811061085e5761085d61188a565b5b90600052602060002090600a020190508060000160009054906101000a900473ffffffffffffffffffffffffffffffffffffffff168160010154826002018360030184600401548560050154866006018760070160009054906101000a900460ff1688600801548680546108d190611f1b565b80601f01602080910402602001604051908101604052809291908181526020018280546108fd90611f1b565b801561094a5780601f1061091f5761010080835404028352916020019161094a565b820191906000526020600020905b81548152906001019060200180831161092d57829003601f168201915b5050505050965085805461095d90611f1b565b80601f016020809104026020016040519081016040528092919081815260200182805461098990611f1b565b80156109d65780601f106109ab576101008083540402835291602001916109d6565b820191906000526020600020905b8154815290600101906020018083116109b957829003601f168201915b505050505095508280546109e990611f1b565b80601f0160208091040260200160405190810160405280929190818152602001828054610a1590611f1b565b8015610a625780601f10610a3757610100808354040283529160200191610a62565b820191906000526020600020905b815481529060010190602001808311610a4557829003601f168201915b50505050509250995099509950995099509950995099509950509295985092959850929598565b60026020528160005260406000208181548110610aa557600080fd5b90600052602060002090600a0201600091509150508060000160009054906101000a900473ffffffffffffffffffffffffffffffffffffffff1690806001015490806002018054610af590611f1b565b80601f0160208091040260200160405190810160405280929190818152602001828054610b2190611f1b565b8015610b6e5780601f10610b4357610100808354040283529160200191610b6e565b820191906000526020600020905b815481529060010190602001808311610b5157829003601f168201915b505050505090806003018054610b8390611f1b565b80601f0160208091040260200160405190810160405280929190818152602001828054610baf90611f1b565b8015610bfc5780601f10610bd157610100808354040283529160200191610bfc565b820191906000526020600020905b815481529060010190602001808311610bdf57829003601f168201915b505050505090806004015490806005015490806006018054610c1d90611f1b565b80601f0160208091040260200160405190810160405280929190818152602001828054610c4990611f1b565b8015610c965780601f10610c6b57610100808354040283529160200191610c96565b820191906000526020600020905b815481529060010190602001808311610c7957829003601f168201915b5050505050908060070160009054906101000a900460ff16908060080154905089565b610cc1610f31565b600073ffffffffffffffffffffffffffffffffffffffff168173ffffffffffffffffffffffffffffffffffffffff1603610d335760006040517f1e4fbdf7000000000000000000000000000000000000000000000000000000008152600401610d2a91906111f5565b60405180910390fd5b610d3c81610fb8565b50565b60003411610d82576040517f08c379a0000000000000000000000000000000000000000000000000000000008152600401610d7990611fbe565b60405180910390fd5b6000600260003373ffffffffffffffffffffffffffffffffffffffff1673ffffffffffffffffffffffffffffffffffffffff1681526020019081526020016000208054905090506000600260003373ffffffffffffffffffffffffffffffffffffffff1673ffffffffffffffffffffffffffffffffffffffff1681526020019081526020016000206001816001815401808255809150500390600052602060002090600a02019050338160000160006101000a81548173ffffffffffffffffffffffffffffffffffffffff021916908373ffffffffffffffffffffffffffffffffffffffff16021790555081816001018190555086816002019081610e879190612180565b5085816003019081610e999190612180565b5083816004018190555084816005018190555082816006019081610ebd9190612180565b5060018160070160006101000a81548160ff021916908315150217905550348160080181905550813373ffffffffffffffffffffffffffffffffffffffff167f9f85484cc8fb25030d222fdcd51eb22a0f9b61069192af1dbfb3ff32b78b6d6760405160405180910390a350505050505050565b610f3961107c565b73ffffffffffffffffffffffffffffffffffffffff16610f5761043c565b73ffffffffffffffffffffffffffffffffffffffff1614610fb657610f7a61107c565b6040517f118cdaa7000000000000000000000000000000000000000000000000000000008152600401610fad91906111f5565b60405180910390fd5b565b60008060009054906101000a900473ffffffffffffffffffffffffffffffffffffffff169050816000806101000a81548173ffffffffffffffffffffffffffffffffffffffff021916908373ffffffffffffffffffffffffffffffffffffffff1602179055508173ffffffffffffffffffffffffffffffffffffffff168173ffffffffffffffffffffffffffffffffffffffff167f8be0079c531659141344cd1fd0a4f28419497f9722a3daafe3b4186f6b6457e060405160405180910390a35050565b600033905090565b600073ffffffffffffffffffffffffffffffffffffffff82169050919050565b6000819050919050565b60006110c96110c46110bf84611084565b6110a4565b611084565b9050919050565b60006110db826110ae565b9050919050565b60006110ed826110d0565b9050919050565b6110fd816110e2565b82525050565b600060208201905061111860008301846110f4565b92915050565b6000604051905090565b600080fd5b600080fd5b600061113d82611084565b9050919050565b61114d81611132565b811461115857600080fd5b50565b60008135905061116a81611144565b92915050565b6000819050919050565b61118381611170565b811461118e57600080fd5b50565b6000813590506111a08161117a565b92915050565b600080604083850312156111bd576111bc611128565b5b60006111cb8582860161115b565b92505060206111dc85828601611191565b9150509250929050565b6111ef81611132565b82525050565b600060208201905061120a60008301846111e6565b92915050565b600080fd5b6000601f19601f8301169050919050565b7f4e487b7100000000000000000000000000000000000000000000000000000000600052604160045260246000fd5b61125e82611215565b810181811067ffffffffffffffff8211171561127d5761127c611226565b5b80604052505050565b600061129061111e565b905061129c8282611255565b919050565b600067ffffffffffffffff8211156112bc576112bb611226565b5b602082029050919050565b600080fd5b60006112df6112da846112a1565b611286565b905080602084028301858111156112f9576112f86112c7565b5b835b81811015611322578061130e8882611191565b8452602084019350506020810190506112fb565b5050509392505050565b600082601f83011261134157611340611210565b5b600261134e8482856112cc565b91505092915050565b600067ffffffffffffffff82111561137257611371611226565b5b602082029050919050565b600061139061138b84611357565b611286565b905080604084028301858111156113aa576113a96112c7565b5b835b818110156113d357806113bf888261132c565b8452602084019350506040810190506113ac565b5050509392505050565b600082601f8301126113f2576113f1611210565b5b60026113ff84828561137d565b91505092915050565b600067ffffffffffffffff82111561142357611422611226565b5b602082029050919050565b600061144161143c84611408565b611286565b9050806020840283018581111561145b5761145a6112c7565b5b835b8181101561148457806114708882611191565b84526020840193505060208101905061145d565b5050509392505050565b600082601f8301126114a3576114a2611210565b5b60016114b084828561142e565b91505092915050565b60008060008060008061016087890312156114d7576114d6611128565b5b60006114e589828a0161115b565b96505060206114f689828a01611191565b955050604061150789828a0161132c565b945050608061151889828a016113dd565b93505061010061152a89828a0161132c565b92505061014061153c89828a0161148e565b9150509295509295509295565b61155281611170565b82525050565b600081519050919050565b600082825260208201905092915050565b60005b83811015611592578082015181840152602081019050611577565b60008484015250505050565b60006115a982611558565b6115b38185611563565b93506115c3818560208601611574565b6115cc81611215565b840191505092915050565b6000819050919050565b6115ea816115d7565b82525050565b60008115159050919050565b611605816115f0565b82525050565b600061012082019050611621600083018c6111e6565b61162e602083018b611549565b8181036040830152611640818a61159e565b90508181036060830152611654818961159e565b905061166360808301886115e1565b61167060a0830187611549565b81810360c0830152611682818661159e565b905061169160e08301856115fc565b61169f610100830184611549565b9a9950505050505050505050565b6000602082840312156116c3576116c2611128565b5b60006116d18482850161115b565b91505092915050565b600080fd5b600067ffffffffffffffff8211156116fa576116f9611226565b5b61170382611215565b9050602081019050919050565b82818337600083830152505050565b600061173261172d846116df565b611286565b90508281526020810184848401111561174e5761174d6116da565b5b611759848285611710565b509392505050565b600082601f83011261177657611775611210565b5b813561178684826020860161171f565b91505092915050565b611798816115d7565b81146117a357600080fd5b50565b6000813590506117b58161178f565b92915050565b600080600080600060a086880312156117d7576117d6611128565b5b600086013567ffffffffffffffff8111156117f5576117f461112d565b5b61180188828901611761565b955050602086013567ffffffffffffffff8111156118225761182161112d565b5b61182e88828901611761565b945050604061183f88828901611191565b9350506060611850888289016117a6565b925050608086013567ffffffffffffffff8111156118715761187061112d565b5b61187d88828901611761565b9150509295509295909350565b7f4e487b7100000000000000000000000000000000000000000000000000000000600052603260045260246000fd5b7f4e6f7420617574686f72697a6564000000000000000000000000000000000000600082015250565b60006118ef600e83611563565b91506118fa826118b9565b602082019050919050565b6000602082019050818103600083015261191e816118e2565b9050919050565b7f4368616c6c656e676520616c726561647920696e76616c696461746564000000600082015250565b600061195b601d83611563565b915061196682611925565b602082019050919050565b6000602082019050818103600083015261198a8161194e565b9050919050565b7f4368616c6c656e6765206973206e6f742076616c696400000000000000000000600082015250565b60006119c7601683611563565b91506119d282611991565b602082019050919050565b600060208201905081810360008301526119f6816119ba565b9050919050565b7f5072697a6520616c726561647920636c61696d65640000000000000000000000600082015250565b6000611a33601583611563565b9150611a3e826119fd565b602082019050919050565b60006020820190508181036000830152611a6281611a26565b9050919050565b7f4e6f207072697a6520617661696c61626c650000000000000000000000000000600082015250565b6000611a9f601283611563565b9150611aaa82611a69565b602082019050919050565b60006020820190508181036000830152611ace81611a92565b9050919050565b600060029050919050565b600081905092915050565b6000819050919050565b611afe81611170565b82525050565b6000611b108383611af5565b60208301905092915050565b6000602082019050919050565b611b3281611ad5565b611b3c8184611ae0565b9250611b4782611aeb565b8060005b83811015611b78578151611b5f8782611b04565b9650611b6a83611b1c565b925050600181019050611b4b565b505050505050565b600060029050919050565b600081905092915050565b6000819050919050565b600081905092915050565b611bb481611ad5565b611bbe8184611ba0565b9250611bc982611aeb565b8060005b83811015611bfa578151611be18782611b04565b9650611bec83611b1c565b925050600181019050611bcd565b505050505050565b6000611c0e8383611bab565b60408301905092915050565b6000602082019050919050565b611c3081611b80565b611c3a8184611b8b565b9250611c4582611b96565b8060005b83811015611c76578151611c5d8782611c02565b9650611c6883611c1a565b925050600181019050611c49565b505050505050565b600060019050919050565b600081905092915050565b6000819050919050565b6000602082019050919050565b611cb481611c7e565b611cbe8184611c89565b9250611cc982611c94565b8060005b83811015611cfa578151611ce18782611b04565b9650611cec83611c9e565b925050600181019050611ccd565b505050505050565b600061012082019050611d186000830187611b29565b611d256040830186611c27565b611d3260c0830185611b29565b611d40610100830184611cab565b95945050505050565b611d52816115f0565b8114611d5d57600080fd5b50565b600081519050611d6f81611d49565b92915050565b600060208284031215611d8b57611d8a611128565b5b6000611d9984828501611d60565b91505092915050565b7f496e76616c6964205a4b2070726f6f6600000000000000000000000000000000600082015250565b6000611dd8601083611563565b9150611de382611da2565b602082019050919050565b60006020820190508181036000830152611e0781611dcb565b9050919050565b7f4e487b7100000000000000000000000000000000000000000000000000000000600052601260045260246000fd5b7f4e487b7100000000000000000000000000000000000000000000000000000000600052601160045260246000fd5b6000611e7782611170565b9150611e8283611170565b925082611e9257611e91611e0e565b5b828204905092915050565b6000611ea882611170565b9150611eb383611170565b9250828203905081811115611ecb57611eca611e3d565b5b92915050565b6000602082019050611ee66000830184611549565b92915050565b7f4e487b7100000000000000000000000000000000000000000000000000000000600052602260045260246000fd5b60006002820490506001821680611f3357607f821691505b602082108103611f4657611f45611eec565b5b50919050565b7f5072697a6520706f6f6c206d7573742062652067726561746572207468616e2060008201527f3000000000000000000000000000000000000000000000000000000000000000602082015250565b6000611fa8602183611563565b9150611fb382611f4c565b604082019050919050565b60006020820190508181036000830152611fd781611f9b565b9050919050565b60008190508160005260206000209050919050565b60006020601f8301049050919050565b600082821b905092915050565b6000600883026120407fffffffffffffffffffffffffffffffffffffffffffffffffffffffffffffffff82612003565b61204a8683612003565b95508019841693508086168417925050509392505050565b600061207d61207861207384611170565b6110a4565b611170565b9050919050565b6000819050919050565b61209783612062565b6120ab6120a382612084565b848454612010565b825550505050565b600090565b6120c06120b3565b6120cb81848461208e565b505050565b5b818110156120ef576120e46000826120b8565b6001810190506120d1565b5050565b601f8211156121345761210581611fde565b61210e84611ff3565b8101602085101561211d578190505b61213161212985611ff3565b8301826120d0565b50505b505050565b600082821c905092915050565b600061215760001984600802612139565b1980831691505092915050565b60006121708383612146565b9150826002028217905092915050565b61218982611558565b67ffffffffffffffff8111156121a2576121a1611226565b5b6121ac8254611f1b565b6121b78282856120f3565b600060209050601f8311600181146121ea57600084156121d8578287015190505b6121e28582612164565b86555061224a565b601f1984166121f886611fde565b60005b82811015612220578489015182556001820191506020850194506020810190506121fb565b8683101561223d5784890151612239601f891682612146565b8355505b6001600288020188555050505b50505050505056fea2646970667358221220faf6d589a8cce3fa01aa67559ccfe55efb98a78e85335793f07cdcf6001af5d264736f6c634300081b0033",
    "linkReferences": {},
    "deployedLinkReferences": {}
}